{
  "contractName": "Asset",
  "abi": [
    {
      "constant": true,
      "inputs": [],
      "name": "initialized",
      "outputs": [
        {
          "name": "",
          "type": "bool"
        }
      ],
      "payable": false,
      "stateMutability": "view",
      "type": "function"
    },
    {
      "constant": true,
      "inputs": [],
      "name": "description",
      "outputs": [
        {
          "name": "",
          "type": "string"
        }
      ],
      "payable": false,
      "stateMutability": "view",
      "type": "function"
    },
    {
      "constant": true,
      "inputs": [],
      "name": "uuid",
      "outputs": [
        {
          "name": "",
          "type": "bytes32"
        }
      ],
      "payable": false,
      "stateMutability": "view",
      "type": "function"
    },
    {
      "constant": true,
      "inputs": [
        {
          "name": "",
          "type": "uint256"
        }
      ],
      "name": "assetAccts",
      "outputs": [
        {
          "name": "",
          "type": "address"
        }
      ],
      "payable": false,
      "stateMutability": "view",
      "type": "function"
    },
    {
      "constant": true,
      "inputs": [],
      "name": "manufact",
      "outputs": [
        {
          "name": "",
          "type": "string"
        }
      ],
      "payable": false,
      "stateMutability": "view",
      "type": "function"
    },
    {
      "inputs": [
        {
          "name": "_address",
          "type": "address"
        },
        {
          "name": "_description",
          "type": "string"
        },
        {
          "name": "_manufact",
          "type": "string"
        },
        {
          "name": "_initialized",
          "type": "bool"
        }
      ],
      "payable": false,
      "stateMutability": "nonpayable",
      "type": "constructor"
    }
  ],
  "bytecode": "0x608060405234801561001057600080fd5b506040516104c93803806104c983398101604081815282516020808501518386015160608701516c01000000000000000000000000600160a060020a03861602848801528551808803601401815260349097019586905286519497928301969190920194919390928291908401908083835b602083106100a15780518252601f199092019160209182019101610082565b51815160209384036101000a60001901801990921691161790526040519190930181900390206000555085516100df9350600192509086019061015c565b5081516100f390600290602085019061015c565b506003805460ff19169115159190911790555050600480546001810182556000919091527f8a35acfbc15ff81a39ae7d344fd709f28e8600b4aa8c65c6b64bfe7fe36bd19b018054600160a060020a031916600160a060020a03929092169190911790556101f7565b828054600181600116156101000203166002900490600052602060002090601f016020900481019282601f1061019d57805160ff19168380011785556101ca565b828001600101855582156101ca579182015b828111156101ca5782518255916020019190600101906101af565b506101d69291506101da565b5090565b6101f491905b808211156101d657600081556001016101e0565b90565b6102c3806102066000396000f3006080604052600436106100535763ffffffff60e060020a600035041663158ef93e81146100585780637284e41614610081578063bb07e85d1461010b578063e4c99a2514610132578063fdee121614610166575b600080fd5b34801561006457600080fd5b5061006d61017b565b604080519115158252519081900360200190f35b34801561008d57600080fd5b50610096610184565b6040805160208082528351818301528351919283929083019185019080838360005b838110156100d05781810151838201526020016100b8565b50505050905090810190601f1680156100fd5780820380516001836020036101000a031916815260200191505b509250505060405180910390f35b34801561011757600080fd5b50610120610211565b60408051918252519081900360200190f35b34801561013e57600080fd5b5061014a600435610217565b60408051600160a060020a039092168252519081900360200190f35b34801561017257600080fd5b5061009661023f565b60035460ff1681565b60018054604080516020600284861615610100026000190190941693909304601f810184900484028201840190925281815292918301828280156102095780601f106101de57610100808354040283529160200191610209565b820191906000526020600020905b8154815290600101906020018083116101ec57829003601f168201915b505050505081565b60005481565b600480548290811061022557fe5b600091825260209091200154600160a060020a0316905081565b6002805460408051602060018416156101000260001901909316849004601f810184900484028201840190925281815292918301828280156102095780601f106101de576101008083540402835291602001916102095600a165627a7a72305820ab80ab7168ac977556fce83bbfe8715fb99190a597da4e6da075685bed6f59950029",
  "source": "pragma solidity ^0.4.2;\n\ncontract Asset {\n\t     \n    bytes32 public uuid;\n    string public description;\n    string public manufact;\n    bool public initialized;\n    \t        \n    address[] public assetAccts;\n\n    constructor(address _address, string _description, string _manufact, bool _initialized) public {\n                \n        uuid = keccak256(abi.encodePacked(_address));\n        description  = _description;\n        manufact = _manufact;\n        initialized = _initialized;\n        \n        assetAccts.push(_address) -1;\n    }\n}",
  "sourcePath": "/Users/shivansh/Documents/tracer-gun-contract/contracts/asset.sol",
  "compiler": {
    "name": "solc",
    "version": "0.4.26+commit.4563c3fc.Emscripten.clang"
  },
  "schemaVersion": "3.3.4",
  "updatedAt": "2021-04-12T10:02:11.781Z",
  "devdoc": {
    "methods": {}
  },
  "userdoc": {
    "methods": {}
  }
}