{
  "contractName": "Buyer",
  "abi": [
    {
      "constant": true,
      "inputs": [],
      "name": "name",
      "outputs": [
        {
          "name": "",
          "type": "string"
        }
      ],
      "payable": false,
      "stateMutability": "view",
      "type": "function"
    },
    {
      "constant": true,
      "inputs": [],
      "name": "buyer_add",
      "outputs": [
        {
          "name": "",
          "type": "address"
        }
      ],
      "payable": false,
      "stateMutability": "view",
      "type": "function"
    },
    {
      "constant": true,
      "inputs": [],
      "name": "id",
      "outputs": [
        {
          "name": "",
          "type": "uint256"
        }
      ],
      "payable": false,
      "stateMutability": "view",
      "type": "function"
    },
    {
      "inputs": [
        {
          "name": "_name",
          "type": "string"
        },
        {
          "name": "_id",
          "type": "uint256"
        }
      ],
      "payable": false,
      "stateMutability": "nonpayable",
      "type": "constructor"
    }
  ],
  "bytecode": "0x608060405234801561001057600080fd5b506040516102fc3803806102fc83398101604052805160208083015191909201805190926100439160009185019061005f565b506001555060028054600160a060020a031916301790556100fa565b828054600181600116156101000203166002900490600052602060002090601f016020900481019282601f106100a057805160ff19168380011785556100cd565b828001600101855582156100cd579182015b828111156100cd5782518255916020019190600101906100b2565b506100d99291506100dd565b5090565b6100f791905b808211156100d957600081556001016100e3565b90565b6101f3806101096000396000f30060806040526004361061003d5763ffffffff60e060020a60003504166306fdde03811461004257806334efd194146100cc578063af640d0f146100fd575b600080fd5b34801561004e57600080fd5b50610057610124565b6040805160208082528351818301528351919283929083019185019080838360005b83811015610091578181015183820152602001610079565b50505050905090810190601f1680156100be5780820380516001836020036101000a031916815260200191505b509250505060405180910390f35b3480156100d857600080fd5b506100e16101b2565b60408051600160a060020a039092168252519081900360200190f35b34801561010957600080fd5b506101126101c1565b60408051918252519081900360200190f35b6000805460408051602060026001851615610100026000190190941693909304601f810184900484028201840190925281815292918301828280156101aa5780601f1061017f576101008083540402835291602001916101aa565b820191906000526020600020905b81548152906001019060200180831161018d57829003601f168201915b505050505081565b600254600160a060020a031681565b600154815600a165627a7a72305820c96e0d4baa1f14a72e21837e66c550dc08b60fdf7b0bb61e764ebe238c7661030029",
  "source": "pragma solidity ^0.4.2;\n\ncontract Buyer\n{\n    string public name;\n    uint public id;\n    address public buyer_add;\n    \n    constructor(string _name, uint _id) public\n    {\n        name = _name;\n        id = _id;\n        buyer_add = this;\n    }\n}\n\ncontract Vendor\n{\n    string public name;\n    bool public license;\n    address public vendor_add;\n    \n    constructor(string _name, bool _license) public\n    {\n        name = _name;\n        license = _license;\n        vendor_add = this;\n    }\n}\n\ncontract Manufacturer\n{\n    string public name;\n    bool public license;\n    address public man_add;\n    \n    constructor(string _name, bool _license) public\n    {\n        name = _name;\n        license = _license;\n        man_add = this;\n    }\n}",
  "sourcePath": "/Users/shivansh/Documents/tracer-gun-contract/contracts/entity.sol",
  "compiler": {
    "name": "solc",
    "version": "0.4.26+commit.4563c3fc.Emscripten.clang"
  },
  "schemaVersion": "3.3.4",
  "updatedAt": "2021-04-12T10:02:11.782Z",
  "devdoc": {
    "methods": {}
  },
  "userdoc": {
    "methods": {}
  }
}