{
  "contractName": "Tracer",
  "abi": [
    {
      "constant": true,
      "inputs": [
        {
          "name": "",
          "type": "address"
        },
        {
          "name": "",
          "type": "bytes32"
        }
      ],
      "name": "entityStore",
      "outputs": [
        {
          "name": "",
          "type": "bool"
        }
      ],
      "payable": false,
      "stateMutability": "view",
      "type": "function"
    },
    {
      "constant": true,
      "inputs": [
        {
          "name": "",
          "type": "bytes32"
        }
      ],
      "name": "assetStore",
      "outputs": [
        {
          "name": "",
          "type": "address"
        }
      ],
      "payable": false,
      "stateMutability": "view",
      "type": "function"
    },
    {
      "inputs": [],
      "payable": false,
      "stateMutability": "nonpayable",
      "type": "constructor"
    },
    {
      "anonymous": false,
      "inputs": [
        {
          "indexed": false,
          "name": "account",
          "type": "address"
        },
        {
          "indexed": false,
          "name": "uuid",
          "type": "bytes32"
        },
        {
          "indexed": false,
          "name": "manufacturer",
          "type": "string"
        }
      ],
      "name": "AssetCreate",
      "type": "event"
    },
    {
      "anonymous": false,
      "inputs": [
        {
          "indexed": false,
          "name": "account",
          "type": "address"
        },
        {
          "indexed": false,
          "name": "uuid",
          "type": "bytes32"
        },
        {
          "indexed": false,
          "name": "messid",
          "type": "string"
        }
      ],
      "name": "RejectCreate",
      "type": "event"
    },
    {
      "anonymous": false,
      "inputs": [
        {
          "indexed": false,
          "name": "from",
          "type": "address"
        },
        {
          "indexed": false,
          "name": "to",
          "type": "address"
        },
        {
          "indexed": false,
          "name": "uuid",
          "type": "bytes32"
        }
      ],
      "name": "AssetTransfer",
      "type": "event"
    },
    {
      "anonymous": false,
      "inputs": [
        {
          "indexed": false,
          "name": "from",
          "type": "address"
        },
        {
          "indexed": false,
          "name": "to",
          "type": "address"
        },
        {
          "indexed": false,
          "name": "uuid",
          "type": "bytes32"
        },
        {
          "indexed": false,
          "name": "messid",
          "type": "string"
        }
      ],
      "name": "RejectTransfer",
      "type": "event"
    },
    {
      "constant": false,
      "inputs": [
        {
          "name": "_name",
          "type": "string"
        },
        {
          "name": "_id",
          "type": "uint256"
        }
      ],
      "name": "createBuyer",
      "outputs": [],
      "payable": false,
      "stateMutability": "nonpayable",
      "type": "function"
    },
    {
      "constant": false,
      "inputs": [
        {
          "name": "_name",
          "type": "string"
        },
        {
          "name": "_license",
          "type": "bool"
        }
      ],
      "name": "createVendor",
      "outputs": [],
      "payable": false,
      "stateMutability": "nonpayable",
      "type": "function"
    },
    {
      "constant": false,
      "inputs": [
        {
          "name": "_name",
          "type": "string"
        },
        {
          "name": "_license",
          "type": "bool"
        }
      ],
      "name": "createManufacturer",
      "outputs": [],
      "payable": false,
      "stateMutability": "nonpayable",
      "type": "function"
    },
    {
      "constant": false,
      "inputs": [
        {
          "name": "_description",
          "type": "string"
        },
        {
          "name": "_manufacturer",
          "type": "string"
        },
        {
          "name": "_initialized",
          "type": "bool"
        }
      ],
      "name": "createAsset",
      "outputs": [
        {
          "name": "",
          "type": "bytes32"
        }
      ],
      "payable": false,
      "stateMutability": "nonpayable",
      "type": "function"
    },
    {
      "constant": true,
      "inputs": [],
      "name": "getBuyers",
      "outputs": [
        {
          "name": "",
          "type": "address[]"
        }
      ],
      "payable": false,
      "stateMutability": "view",
      "type": "function"
    },
    {
      "constant": true,
      "inputs": [],
      "name": "getVendors",
      "outputs": [
        {
          "name": "",
          "type": "address[]"
        }
      ],
      "payable": false,
      "stateMutability": "view",
      "type": "function"
    },
    {
      "constant": true,
      "inputs": [],
      "name": "getManufacturers",
      "outputs": [
        {
          "name": "",
          "type": "address[]"
        }
      ],
      "payable": false,
      "stateMutability": "view",
      "type": "function"
    },
    {
      "constant": true,
      "inputs": [],
      "name": "getAssetsUUIDs",
      "outputs": [
        {
          "name": "",
          "type": "bytes32[]"
        }
      ],
      "payable": false,
      "stateMutability": "view",
      "type": "function"
    },
    {
      "constant": true,
      "inputs": [
        {
          "name": "ins",
          "type": "address"
        }
      ],
      "name": "getBuyer",
      "outputs": [
        {
          "name": "",
          "type": "string"
        },
        {
          "name": "",
          "type": "uint256"
        }
      ],
      "payable": false,
      "stateMutability": "view",
      "type": "function"
    },
    {
      "constant": true,
      "inputs": [
        {
          "name": "ins",
          "type": "address"
        }
      ],
      "name": "getVendor",
      "outputs": [
        {
          "name": "",
          "type": "string"
        },
        {
          "name": "",
          "type": "bool"
        }
      ],
      "payable": false,
      "stateMutability": "view",
      "type": "function"
    },
    {
      "constant": true,
      "inputs": [
        {
          "name": "name",
          "type": "string"
        }
      ],
      "name": "getBuyerAddress",
      "outputs": [
        {
          "name": "",
          "type": "address"
        }
      ],
      "payable": false,
      "stateMutability": "view",
      "type": "function"
    },
    {
      "constant": true,
      "inputs": [
        {
          "name": "name",
          "type": "string"
        }
      ],
      "name": "getVendorAddress",
      "outputs": [
        {
          "name": "",
          "type": "address"
        }
      ],
      "payable": false,
      "stateMutability": "view",
      "type": "function"
    },
    {
      "constant": true,
      "inputs": [
        {
          "name": "name",
          "type": "string"
        }
      ],
      "name": "getManufacturerAddress",
      "outputs": [
        {
          "name": "",
          "type": "address"
        }
      ],
      "payable": false,
      "stateMutability": "view",
      "type": "function"
    },
    {
      "constant": true,
      "inputs": [
        {
          "name": "buyer",
          "type": "address"
        },
        {
          "name": "uuid",
          "type": "bytes32"
        }
      ],
      "name": "isBuyerOf",
      "outputs": [
        {
          "name": "",
          "type": "bool"
        }
      ],
      "payable": false,
      "stateMutability": "view",
      "type": "function"
    },
    {
      "constant": false,
      "inputs": [
        {
          "name": "to",
          "type": "address"
        },
        {
          "name": "uuid",
          "type": "bytes32"
        }
      ],
      "name": "transferAsset",
      "outputs": [],
      "payable": false,
      "stateMutability": "nonpayable",
      "type": "function"
    },
    {
      "constant": true,
      "inputs": [
        {
          "name": "uuid",
          "type": "bytes32"
        }
      ],
      "name": "getAssetByUUID",
      "outputs": [
        {
          "name": "",
          "type": "string"
        },
        {
          "name": "",
          "type": "string"
        }
      ],
      "payable": false,
      "stateMutability": "view",
      "type": "function"
    }
  ],
  "bytecode": "0x608060405234801561001057600080fd5b506129bd806100206000396000f300608060405260043610620000f55763ffffffff60e060020a60003504166304c3ba558114620000fa5780630bc0f7d31462000172578063157cea59146200021c57806335eab65514620002575780634be843d814620002b35780634d40515a14620003b25780635721e41914620003db578063613e33db146200044357806364bebcc514620004a357806367492466146200050d578063681569e914620005bd57806387b296f6146200061957806389470fcc1462000677578063bc8a23451462000692578063c41e013214620006aa578063d5a3e3e614620006d1578063eee3e3f114620006e9578063f64bfaba1462000749575b600080fd5b3480156200010757600080fd5b506040805160206004803580820135601f810184900484028501840190955284845262000156943694929360249392840191908190840183828082843750949750620007619650505050505050565b60408051600160a060020a039092168252519081900360200190f35b3480156200017f57600080fd5b5062000196600160a060020a036004351662000839565b604051808060200183151515158152602001828103825284818151815260200191508051906020019080838360005b83811015620001df578181015183820152602001620001c5565b50505050905090810190601f1680156200020d5780820380516001836020036101000a031916815260200191505b50935050505060405180910390f35b3480156200022957600080fd5b5062000243600160a060020a0360043516602435620009b1565b604080519115158252519081900360200190f35b3480156200026457600080fd5b506040805160206004803580820135601f810184900484028501840190955284845262000156943694929360249392840191908190840183828082843750949750620009d19650505050505050565b348015620002c057600080fd5b50620002ce60043562000a75565b604051808060200180602001838103835285818151815260200191508051906020019080838360005b8381101562000311578181015183820152602001620002f7565b50505050905090810190601f1680156200033f5780820380516001836020036101000a031916815260200191505b50838103825284518152845160209182019186019080838360005b83811015620003745781810151838201526020016200035a565b50505050905090810190601f168015620003a25780820380516001836020036101000a031916815260200191505b5094505050505060405180910390f35b348015620003bf57600080fd5b50620003d9600160a060020a036004351660243562000c38565b005b348015620003e857600080fd5b50620003ff600160a060020a036004351662000e63565b60405180806020018381526020018281038252848181518152602001915080519060200190808383600083811015620001df578181015183820152602001620001c5565b3480156200045057600080fd5b506040805160206004803580820135601f8101849004840285018401909552848452620003d994369492936024939284019190819084018382808284375094975050505091351515925062000fa3915050565b348015620004b057600080fd5b50620004bb620011fa565b60408051602080825283518183015283519192839290830191858101910280838360005b83811015620004f9578181015183820152602001620004df565b505050509050019250505060405180910390f35b3480156200051a57600080fd5b506040805160206004803580820135601f8101849004840285018401909552848452620005ab94369492936024939284019190819084018382808284375050604080516020601f89358b018035918201839004830284018301909452808352979a9998810197919650918201945092508291508401838280828437509497505050509135151592506200125e915050565b60408051918252519081900360200190f35b348015620005ca57600080fd5b506040805160206004803580820135601f8101849004840285018401909552848452620001569436949293602493928401919081908401838280828437509497506200147a9650505050505050565b3480156200062657600080fd5b506040805160206004803580820135601f8101849004840285018401909552848452620003d994369492936024939284019190819084018382808284375094975050933594506200151e9350505050565b3480156200068457600080fd5b506200015660043562001771565b3480156200069f57600080fd5b50620004bb6200178c565b348015620006b757600080fd5b5062000243600160a060020a0360043516602435620017ee565b348015620006de57600080fd5b50620004bb6200182e565b348015620006f657600080fd5b506040805160206004803580820135601f8101849004840285018401909552848452620003d994369492936024939284019190819084018382808284375094975050505091351515925062001888915050565b3480156200075657600080fd5b50620004bb62001ae0565b60006009826040518082805190602001908083835b60208310620007975780518252601f19909201916020918201910162000776565b51815160209384036101000a60001901801990921691161790529201948552506040805194859003820185205460e060020a63a08fdf6b0286529051600160a060020a039091169463a08fdf6b945060048082019450908290030181600087803b1580156200080557600080fd5b505af11580156200081a573d6000803e3d6000fd5b505050506040513d60208110156200083157600080fd5b505192915050565b600160a060020a0380821660009081526006602052604080822054815160e060020a6306fdde03028152915160609491909116916306fdde03916004808301928692919082900301818387803b1580156200089357600080fd5b505af1158015620008a8573d6000803e3d6000fd5b505050506040513d6000823e601f3d908101601f191682016040526020811015620008d257600080fd5b810190808051602060020a811115620008ea57600080fd5b82016020810184811115620008fe57600080fd5b8151602060020a8111828201871017156200091857600080fd5b5050600160a060020a03808816600090815260066020908152604080832054815160e260020a631ae1f49302815291519598509093169550636b87d24c945060048084019491939192918390030190829087803b1580156200097957600080fd5b505af11580156200098e573d6000803e3d6000fd5b505050506040513d6020811015620009a557600080fd5b50519092509050915091565b600b60209081526000928352604080842090915290825290205460ff1681565b60006007826040518082805190602001908083835b6020831062000a075780518252601f199092019160209182019101620009e6565b51815160209384036101000a60001901801990921691161790529201948552506040805194859003820185205460e060020a630e30959d0286529051600160a060020a0390911694630e30959d945060048082019450908290030181600087803b1580156200080557600080fd5b6000818152600a602052604080822054815160e160020a633942720b02815291516060938493600160a060020a0390931692637284e416926004808301939282900301818387803b15801562000aca57600080fd5b505af115801562000adf573d6000803e3d6000fd5b505050506040513d6000823e601f3d908101601f19168201604052602081101562000b0957600080fd5b810190808051602060020a81111562000b2157600080fd5b8201602081018481111562000b3557600080fd5b8151602060020a81118282018710171562000b4f57600080fd5b50506000878152600a602052604080822054815160e160020a637ef7090b0281529151939650600160a060020a0316945063fdee121693506004808201939182900301818387803b15801562000ba457600080fd5b505af115801562000bb9573d6000803e3d6000fd5b505050506040513d6000823e601f3d908101601f19168201604052602081101562000be357600080fd5b810190808051602060020a81111562000bfb57600080fd5b8201602081018481111562000c0f57600080fd5b8151602060020a81118282018710171562000c2957600080fd5b50949650945050505050915091565b6000818152600a6020908152604080832054815160e160020a630ac77c9f0281529151600160a060020a039091169363158ef93e93600480850194919392918390030190829087803b15801562000c8e57600080fd5b505af115801562000ca3573d6000803e3d6000fd5b505050506040513d602081101562000cba57600080fd5b5051151562000d355760408051338152600160a060020a0384166020820152808201839052608060608201819052601e908201527f4e6f20617373657420776974682074686973205555494420657869737473000060a08201529051600080516020620029728339815191529181900360c00190a162000e5f565b336000908152600b6020908152604080832084845290915290205460ff16151562000dd95760408051338152600160a060020a03841660208201528082018390526080606082018190526021908201527f53656e64657220646f6573206e6f74206275796572207468697320617373657460a082015260f960020a60170260c08201529051600080516020620029728339815191529181900360e00190a162000e5f565b336000818152600b602081815260408084208685528252808420805460ff19908116909155600160a060020a03881680865293835281852087865283529381902080549094166001179093558251938452830152818101839052517f65fd9b38ffa35c2e717a5a669ceb1e479f21d43923db83c9f6c4472661a51ee49181900360600190a15b5050565b600160a060020a03808216600090815260046020819052604080832054815160e060020a6306fdde03028152915160609591909116926306fdde0392808201928692909182900301818387803b15801562000ebd57600080fd5b505af115801562000ed2573d6000803e3d6000fd5b505050506040513d6000823e601f3d908101601f19168201604052602081101562000efc57600080fd5b810190808051602060020a81111562000f1457600080fd5b8201602081018481111562000f2857600080fd5b8151602060020a81118282018710171562000f4257600080fd5b5050600160a060020a03808816600090815260046020818152604080842054815160e060020a63af640d0f0281529151969950909416965063af640d0f955083820194909390929083900390910190829087803b1580156200097957600080fd5b6000828262000fb162001b42565b81151560208083019190915260408083528451908301528351829160608301919086019080838360005b8381101562000ff557818101518382015260200162000fdb565b50505050905090810190601f168015620010235780820380516001836020036101000a031916815260200191505b509350505050604051809103906000f08015801562001046573d6000803e3d6000fd5b50600160a060020a0381166000818152600660205260408082208054600160a060020a03191684179055805160e060020a6306fdde0302815290519394508493600793926306fdde03926004808201939182900301818387803b158015620010ad57600080fd5b505af1158015620010c2573d6000803e3d6000fd5b505050506040513d6000823e601f3d908101601f191682016040526020811015620010ec57600080fd5b810190808051602060020a8111156200110457600080fd5b820160208101848111156200111857600080fd5b8151602060020a8111828201871017156200113257600080fd5b50509291905050506040518082805190602001908083835b602083106200116b5780518252601f1990920191602091820191016200114a565b51815160209384036101000a600019018019909216911617905292019485525060405193849003019092208054600160a060020a0319908116600160a060020a03958616179091556001805480820182556000919091527fb10e2d527612073b26eecdfd717e6a320cf44b4afac2b0732d9fcbe2b7fa0cf6018054909116949093169390931790915550505050565b606060018054806020026020016040519081016040528092919081815260200182805480156200125457602002820191906000526020600020905b8154600160a060020a0316815260019091019060200180831162001235575b5050505050905090565b6000806000818686866200127162001b53565b600160a060020a03851681528115156060820152608060208083018281528651928401929092528551604084019160a08501919088019080838360005b83811015620012c8578181015183820152602001620012ae565b50505050905090810190601f168015620012f65780820380516001836020036101000a031916815260200191505b50838103825285518152855160209182019187019080838360005b838110156200132b57818101518382015260200162001311565b50505050905090810190601f168015620013595780820380516001836020036101000a031916815260200191505b509650505050505050604051809103906000f0801580156200137f573d6000803e3d6000fd5b50915081600160a060020a031663bb07e85d6040518163ffffffff1660e060020a028152600401602060405180830381600087803b158015620013c157600080fd5b505af1158015620013d6573d6000803e3d6000fd5b505050506040513d6020811015620013ed57600080fd5b50516000818152600a602090815260408083208054600160a060020a038816600160a060020a0319909116179055338352600b82528083208484529091528120805460ff191660019081179091556003805491820181559091527fc2575a0e9e593c00f959f8c92f12db2869c3395a3b0502d05e2516446f71f85b01819055925082905050509392505050565b60006005826040518082805190602001908083835b60208310620014b05780518252601f1990920191602091820191016200148f565b51815160209384036101000a60001901801990921691161790529201948552506040805194859003820185205460e260020a630d3bf4650286529051600160a060020a03909116946334efd194945060048082019450908290030181600087803b1580156200080557600080fd5b600082826200152c62001b64565b602080820183905260408083528451908301528351829160608301919086019080838360005b838110156200156c57818101518382015260200162001552565b50505050905090810190601f1680156200159a5780820380516001836020036101000a031916815260200191505b509350505050604051809103906000f080158015620015bd573d6000803e3d6000fd5b50600160a060020a03811660008181526004602081905260408083208054600160a060020a03191685179055805160e060020a6306fdde0302815290519495508594600594936306fdde03938381019391929182900301818387803b1580156200162657600080fd5b505af11580156200163b573d6000803e3d6000fd5b505050506040513d6000823e601f3d908101601f1916820160405260208110156200166557600080fd5b810190808051602060020a8111156200167d57600080fd5b820160208101848111156200169157600080fd5b8151602060020a811182820187101715620016ab57600080fd5b50509291905050506040518082805190602001908083835b60208310620016e45780518252601f199092019160209182019101620016c3565b51815160209384036101000a600019018019909216911617905292019485525060405193849003019092208054600160a060020a0319908116600160a060020a0395861617909155600080546001810182559080527f290decd9548b62a8d60345a988386fc84ba6bc95484008f6362f93160ef3e563018054909116949093169390931790915550505050565b600a60205260009081526040902054600160a060020a031681565b606060028054806020026020016040519081016040528092919081815260200182805480156200125457602002820191906000526020600020908154600160a060020a0316815260019091019060200180831162001235575050505050905090565b600160a060020a0382166000908152600b6020908152604080832084845290915281205460ff1615620018245750600162001828565b5060005b92915050565b606060038054806020026020016040519081016040528092919081815260200182805480156200125457602002820191906000526020600020905b8154815260019091019060200180831162001869575050505050905090565b600082826200189662001b75565b81151560208083019190915260408083528451908301528351829160608301919086019080838360005b83811015620018da578181015183820152602001620018c0565b50505050905090810190601f168015620019085780820380516001836020036101000a031916815260200191505b509350505050604051809103906000f0801580156200192b573d6000803e3d6000fd5b50600160a060020a0381166000818152600860205260408082208054600160a060020a03191684179055805160e060020a6306fdde0302815290519394508493600993926306fdde03926004808201939182900301818387803b1580156200199257600080fd5b505af1158015620019a7573d6000803e3d6000fd5b505050506040513d6000823e601f3d908101601f191682016040526020811015620019d157600080fd5b810190808051602060020a811115620019e957600080fd5b82016020810184811115620019fd57600080fd5b8151602060020a81118282018710171562001a1757600080fd5b50509291905050506040518082805190602001908083835b6020831062001a505780518252601f19909201916020918201910162001a2f565b51815160209384036101000a600019018019909216911617905292019485525060405193849003019092208054600160a060020a0319908116600160a060020a0395861617909155600280546001810182556000919091527f405787fa12a823e0f2b7631cc41b3ba8828b3321ca811111fa75cd3aa3bb5ace018054909116949093169390931790915550505050565b606060008054806020026020016040519081016040528092919081815260200182805480156200125457602002820191906000526020600020908154600160a060020a0316815260019091019060200180831162001235575050505050905090565b6040516103138062001b8783390190565b6040516104c98062001e9a83390190565b6040516102fc806200236383390190565b604051610313806200265f833901905600608060405234801561001057600080fd5b5060405161031338038061031383398101604052805160208083015191909201805190926100439160009185019061006c565b506001805460ff19169115159190911761010060a860020a031916610100300217905550610107565b828054600181600116156101000203166002900490600052602060002090601f016020900481019282601f106100ad57805160ff19168380011785556100da565b828001600101855582156100da579182015b828111156100da5782518255916020019190600101906100bf565b506100e69291506100ea565b5090565b61010491905b808211156100e657600081556001016100f0565b90565b6101fd806101166000396000f30060806040526004361061003d5763ffffffff60e060020a60003504166306fdde0381146100425780630e30959d146100cc5780636b87d24c146100fd575b600080fd5b34801561004e57600080fd5b50610057610126565b6040805160208082528351818301528351919283929083019185019080838360005b83811015610091578181015183820152602001610079565b50505050905090810190601f1680156100be5780820380516001836020036101000a031916815260200191505b509250505060405180910390f35b3480156100d857600080fd5b506100e16101b4565b60408051600160a060020a039092168252519081900360200190f35b34801561010957600080fd5b506101126101c8565b604080519115158252519081900360200190f35b6000805460408051602060026001851615610100026000190190941693909304601f810184900484028201840190925281815292918301828280156101ac5780601f10610181576101008083540402835291602001916101ac565b820191906000526020600020905b81548152906001019060200180831161018f57829003601f168201915b505050505081565b6001546101009004600160a060020a031681565b60015460ff16815600a165627a7a72305820b207588179394eb2abead0cbabf9e49a2d812bda18722603a6f0b7c0bf75ef0f0029608060405234801561001057600080fd5b506040516104c93803806104c983398101604081815282516020808501518386015160608701516c01000000000000000000000000600160a060020a03861602848801528551808803601401815260349097019586905286519497928301969190920194919390928291908401908083835b602083106100a15780518252601f199092019160209182019101610082565b51815160209384036101000a60001901801990921691161790526040519190930181900390206000555085516100df9350600192509086019061015c565b5081516100f390600290602085019061015c565b506003805460ff19169115159190911790555050600480546001810182556000919091527f8a35acfbc15ff81a39ae7d344fd709f28e8600b4aa8c65c6b64bfe7fe36bd19b018054600160a060020a031916600160a060020a03929092169190911790556101f7565b828054600181600116156101000203166002900490600052602060002090601f016020900481019282601f1061019d57805160ff19168380011785556101ca565b828001600101855582156101ca579182015b828111156101ca5782518255916020019190600101906101af565b506101d69291506101da565b5090565b6101f491905b808211156101d657600081556001016101e0565b90565b6102c3806102066000396000f3006080604052600436106100535763ffffffff60e060020a600035041663158ef93e81146100585780637284e41614610081578063bb07e85d1461010b578063e4c99a2514610132578063fdee121614610166575b600080fd5b34801561006457600080fd5b5061006d61017b565b604080519115158252519081900360200190f35b34801561008d57600080fd5b50610096610184565b6040805160208082528351818301528351919283929083019185019080838360005b838110156100d05781810151838201526020016100b8565b50505050905090810190601f1680156100fd5780820380516001836020036101000a031916815260200191505b509250505060405180910390f35b34801561011757600080fd5b50610120610211565b60408051918252519081900360200190f35b34801561013e57600080fd5b5061014a600435610217565b60408051600160a060020a039092168252519081900360200190f35b34801561017257600080fd5b5061009661023f565b60035460ff1681565b60018054604080516020600284861615610100026000190190941693909304601f810184900484028201840190925281815292918301828280156102095780601f106101de57610100808354040283529160200191610209565b820191906000526020600020905b8154815290600101906020018083116101ec57829003601f168201915b505050505081565b60005481565b600480548290811061022557fe5b600091825260209091200154600160a060020a0316905081565b6002805460408051602060018416156101000260001901909316849004601f810184900484028201840190925281815292918301828280156102095780601f106101de576101008083540402835291602001916102095600a165627a7a72305820ab80ab7168ac977556fce83bbfe8715fb99190a597da4e6da075685bed6f59950029608060405234801561001057600080fd5b506040516102fc3803806102fc83398101604052805160208083015191909201805190926100439160009185019061005f565b506001555060028054600160a060020a031916301790556100fa565b828054600181600116156101000203166002900490600052602060002090601f016020900481019282601f106100a057805160ff19168380011785556100cd565b828001600101855582156100cd579182015b828111156100cd5782518255916020019190600101906100b2565b506100d99291506100dd565b5090565b6100f791905b808211156100d957600081556001016100e3565b90565b6101f3806101096000396000f30060806040526004361061003d5763ffffffff60e060020a60003504166306fdde03811461004257806334efd194146100cc578063af640d0f146100fd575b600080fd5b34801561004e57600080fd5b50610057610124565b6040805160208082528351818301528351919283929083019185019080838360005b83811015610091578181015183820152602001610079565b50505050905090810190601f1680156100be5780820380516001836020036101000a031916815260200191505b509250505060405180910390f35b3480156100d857600080fd5b506100e16101b2565b60408051600160a060020a039092168252519081900360200190f35b34801561010957600080fd5b506101126101c1565b60408051918252519081900360200190f35b6000805460408051602060026001851615610100026000190190941693909304601f810184900484028201840190925281815292918301828280156101aa5780601f1061017f576101008083540402835291602001916101aa565b820191906000526020600020905b81548152906001019060200180831161018d57829003601f168201915b505050505081565b600254600160a060020a031681565b600154815600a165627a7a72305820c96e0d4baa1f14a72e21837e66c550dc08b60fdf7b0bb61e764ebe238c7661030029608060405234801561001057600080fd5b5060405161031338038061031383398101604052805160208083015191909201805190926100439160009185019061006c565b506001805460ff19169115159190911761010060a860020a031916610100300217905550610107565b828054600181600116156101000203166002900490600052602060002090601f016020900481019282601f106100ad57805160ff19168380011785556100da565b828001600101855582156100da579182015b828111156100da5782518255916020019190600101906100bf565b506100e69291506100ea565b5090565b61010491905b808211156100e657600081556001016100f0565b90565b6101fd806101166000396000f30060806040526004361061003d5763ffffffff60e060020a60003504166306fdde0381146100425780636b87d24c146100cc578063a08fdf6b146100f5575b600080fd5b34801561004e57600080fd5b50610057610126565b6040805160208082528351818301528351919283929083019185019080838360005b83811015610091578181015183820152602001610079565b50505050905090810190601f1680156100be5780820380516001836020036101000a031916815260200191505b509250505060405180910390f35b3480156100d857600080fd5b506100e16101b4565b604080519115158252519081900360200190f35b34801561010157600080fd5b5061010a6101bd565b60408051600160a060020a039092168252519081900360200190f35b6000805460408051602060026001851615610100026000190190941693909304601f810184900484028201840190925281815292918301828280156101ac5780601f10610181576101008083540402835291602001916101ac565b820191906000526020600020905b81548152906001019060200180831161018f57829003601f168201915b505050505081565b60015460ff1681565b6001546101009004600160a060020a0316815600a165627a7a72305820c822faa91ee23c378ccee0449e70b5020bab431ff76bcc7f8850fb685b47100e00293c0bd9a701b41170c77e2b118bcc94e67a2b3a78d19cfd39b8a3039c3f5aa32ba165627a7a72305820b722ebb79fa8efcd59a0b1043c45343395d0bc7f28fbabfb04dfacb26d4ce3380029",
  "source": "\npragma solidity ^0.4.2;\nimport \"./entity.sol\";\nimport \"./asset.sol\";\n\ncontract Tracer\n{\n        address[] buyerAccts;\n        address[] vendorAccts;\n        address[] manufacturerAccts;\n        bytes32[] assetUUIDs;\n        \n    \n    mapping (address => Buyer) buyers;\n    mapping (string => Buyer) buyeraddress;\n    mapping (address => Vendor) vendors;\n    mapping (string => Vendor) vendoraddress;\n    mapping (address => Manufacturer) manufacturers;\n    mapping (string => Manufacturer) manufactureraddress;\n    mapping (bytes32 => Asset) public assetStore;\n    mapping (address => mapping(bytes32 => bool)) public entityStore;\n\n    event AssetCreate(address account, bytes32 uuid, string manufacturer);\n    event RejectCreate(address account, bytes32 uuid, string messid);\n    event AssetTransfer(address from, address to, bytes32 uuid);\n    event RejectTransfer(address from, address to, bytes32 uuid, string messid);\n\n    constructor() public\n    {\n        \n    }\n    \n    function createBuyer(string _name, uint _id) public\n    {\n        Buyer new_buyer = new Buyer(_name, _id);\n        buyers[new_buyer] = new_buyer;\n        buyeraddress[new_buyer.name()] = new_buyer;\n        buyerAccts.push(new_buyer) - 1;\n    }\n    function createVendor(string _name, bool _license) public\n    {\n        Vendor new_vendor = new Vendor(_name, _license);\n        vendors[new_vendor] = new_vendor;\n        vendoraddress[new_vendor.name()] = new_vendor;\n        vendorAccts.push(new_vendor) - 1;\n    }\n    function createManufacturer(string _name, bool _license) public\n    {\n        Manufacturer new_man = new Manufacturer(_name, _license);\n        manufacturers[new_man] = new_man;\n        manufactureraddress[new_man.name()] = new_man;\n        manufacturerAccts.push(new_man) - 1;\n    }\n\n    function createAsset(string _description, string _manufacturer, bool _initialized) public returns (bytes32)\n    {\n        Asset new_asset =  new Asset(new_asset, _description\n, _manufacturer, _initialized);\n        bytes32 uuid = new_asset.uuid();\n        assetStore[uuid] = new_asset;\n        entityStore[msg.sender][uuid] = true;\n        assetUUIDs.push(uuid) - 1;\n        return uuid;\n    }\n    \n    function getBuyers() constant public returns (address[])\n    {\n        return buyerAccts;\n    }\n    function getVendors() constant public returns (address[])\n    {\n        return vendorAccts;\n    }\n    function getManufacturers() constant public returns (address[])\n    {\n        return manufacturerAccts;\n    }\n    function getAssetsUUIDs() constant public returns (bytes32[])\n    {\n        return assetUUIDs;\n    }\n    function getBuyer(address ins) constant public returns (string, uint)\n    {\n        return (buyers[ins].name(), buyers[ins].id());\n    }\n    function getVendor(address ins) constant public returns (string, bool)\n    {\n        return (vendors[ins].name(), vendors[ins].license());\n    }\n    function getBuyerAddress(string name) constant public returns (address)\n    {\n        return buyeraddress[name].buyer_add();\n    }\n    function getVendorAddress(string name) constant public returns (address)\n    {\n        return (vendoraddress[name].vendor_add());   \n    }\n    function getManufacturerAddress(string name) constant public returns (address)\n    {\n        return manufactureraddress[name].man_add();\n    }\n    function isBuyerOf(address buyer, bytes32 uuid) constant public returns (bool)\n    {\n        if (entityStore[buyer][uuid])\n        {\n            return true;\n        }\n        return false;\n    }\n    function transferAsset(address to, bytes32 uuid) public\n    {\n        if(!assetStore[uuid].initialized())\n\t    {\n\t\t    emit RejectTransfer(msg.sender, to, uuid, \"No asset with this UUID exists\");\n\t\t    return;\n\t    }\n    \tif(!entityStore[msg.sender][uuid])\n    \t{\n\t\t    emit RejectTransfer(msg.sender, to, uuid, \"Sender does not buyer this asset.\");\n        \treturn;\n\t\t}\n    \n        entityStore[msg.sender][uuid] = false;\n    \tentityStore[to][uuid] = true;\n    \temit AssetTransfer(msg.sender, to, uuid);\n\t}\n    \n\n\n\tfunction getAssetByUUID(bytes32 uuid) public constant returns (string, string)\n\t{\n \n        return (assetStore[uuid].description(), assetStore[uuid].manufact());\n \n    }\n    \n    \n}",
  "sourcePath": "/Users/shivansh/Documents/tracer-gun-contract/contracts/Tracer.sol",
  "compiler": {
    "name": "solc",
    "version": "0.4.26+commit.4563c3fc.Emscripten.clang"
  },
  "schemaVersion": "3.3.4",
  "updatedAt": "2021-04-14T06:36:35.361Z",
  "networkType": "ethereum",
  "devdoc": {
    "methods": {}
  },
  "userdoc": {
    "methods": {}
  }
}